{
  "_format": "hh-sol-artifact-1",
  "contractName": "NFT",
  "sourceName": "contracts/NFT.sol",
  "abi": [
    {
      "inputs": [],
      "stateMutability": "nonpayable",
      "type": "constructor"
    },
    {
      "anonymous": false,
      "inputs": [
        {
          "indexed": true,
          "internalType": "address",
          "name": "owner",
          "type": "address"
        },
        {
          "indexed": true,
          "internalType": "address",
          "name": "approved",
          "type": "address"
        },
        {
          "indexed": true,
          "internalType": "uint256",
          "name": "tokenId",
          "type": "uint256"
        }
      ],
      "name": "Approval",
      "type": "event"
    },
    {
      "anonymous": false,
      "inputs": [
        {
          "indexed": true,
          "internalType": "address",
          "name": "owner",
          "type": "address"
        },
        {
          "indexed": true,
          "internalType": "address",
          "name": "operator",
          "type": "address"
        },
        {
          "indexed": false,
          "internalType": "bool",
          "name": "approved",
          "type": "bool"
        }
      ],
      "name": "ApprovalForAll",
      "type": "event"
    },
    {
      "anonymous": false,
      "inputs": [
        {
          "indexed": false,
          "internalType": "uint256",
          "name": "_fromTokenId",
          "type": "uint256"
        },
        {
          "indexed": false,
          "internalType": "uint256",
          "name": "_toTokenId",
          "type": "uint256"
        }
      ],
      "name": "BatchMetadataUpdate",
      "type": "event"
    },
    {
      "anonymous": false,
      "inputs": [
        {
          "indexed": false,
          "internalType": "uint256",
          "name": "_tokenId",
          "type": "uint256"
        }
      ],
      "name": "MetadataUpdate",
      "type": "event"
    },
    {
      "anonymous": false,
      "inputs": [
        {
          "indexed": true,
          "internalType": "address",
          "name": "previousOwner",
          "type": "address"
        },
        {
          "indexed": true,
          "internalType": "address",
          "name": "newOwner",
          "type": "address"
        }
      ],
      "name": "OwnershipTransferred",
      "type": "event"
    },
    {
      "anonymous": false,
      "inputs": [
        {
          "indexed": true,
          "internalType": "address",
          "name": "from",
          "type": "address"
        },
        {
          "indexed": true,
          "internalType": "address",
          "name": "to",
          "type": "address"
        },
        {
          "indexed": true,
          "internalType": "uint256",
          "name": "tokenId",
          "type": "uint256"
        }
      ],
      "name": "Transfer",
      "type": "event"
    },
    {
      "inputs": [
        {
          "internalType": "address",
          "name": "to",
          "type": "address"
        },
        {
          "internalType": "uint256",
          "name": "tokenId",
          "type": "uint256"
        }
      ],
      "name": "approve",
      "outputs": [],
      "stateMutability": "nonpayable",
      "type": "function"
    },
    {
      "inputs": [
        {
          "internalType": "address",
          "name": "owner",
          "type": "address"
        }
      ],
      "name": "balanceOf",
      "outputs": [
        {
          "internalType": "uint256",
          "name": "",
          "type": "uint256"
        }
      ],
      "stateMutability": "view",
      "type": "function"
    },
    {
      "inputs": [
        {
          "internalType": "uint256",
          "name": "tokenId",
          "type": "uint256"
        }
      ],
      "name": "getApproved",
      "outputs": [
        {
          "internalType": "address",
          "name": "",
          "type": "address"
        }
      ],
      "stateMutability": "view",
      "type": "function"
    },
    {
      "inputs": [
        {
          "internalType": "address",
          "name": "owner",
          "type": "address"
        },
        {
          "internalType": "address",
          "name": "operator",
          "type": "address"
        }
      ],
      "name": "isApprovedForAll",
      "outputs": [
        {
          "internalType": "bool",
          "name": "",
          "type": "bool"
        }
      ],
      "stateMutability": "view",
      "type": "function"
    },
    {
      "inputs": [
        {
          "internalType": "address",
          "name": "recipient",
          "type": "address"
        },
        {
          "internalType": "string",
          "name": "tokenURI",
          "type": "string"
        }
      ],
      "name": "mintNFT",
      "outputs": [
        {
          "internalType": "uint256",
          "name": "",
          "type": "uint256"
        }
      ],
      "stateMutability": "nonpayable",
      "type": "function"
    },
    {
      "inputs": [],
      "name": "name",
      "outputs": [
        {
          "internalType": "string",
          "name": "",
          "type": "string"
        }
      ],
      "stateMutability": "view",
      "type": "function"
    },
    {
      "inputs": [],
      "name": "owner",
      "outputs": [
        {
          "internalType": "address",
          "name": "",
          "type": "address"
        }
      ],
      "stateMutability": "view",
      "type": "function"
    },
    {
      "inputs": [
        {
          "internalType": "uint256",
          "name": "tokenId",
          "type": "uint256"
        }
      ],
      "name": "ownerOf",
      "outputs": [
        {
          "internalType": "address",
          "name": "",
          "type": "address"
        }
      ],
      "stateMutability": "view",
      "type": "function"
    },
    {
      "inputs": [],
      "name": "renounceOwnership",
      "outputs": [],
      "stateMutability": "nonpayable",
      "type": "function"
    },
    {
      "inputs": [
        {
          "internalType": "address",
          "name": "from",
          "type": "address"
        },
        {
          "internalType": "address",
          "name": "to",
          "type": "address"
        },
        {
          "internalType": "uint256",
          "name": "tokenId",
          "type": "uint256"
        }
      ],
      "name": "safeTransferFrom",
      "outputs": [],
      "stateMutability": "nonpayable",
      "type": "function"
    },
    {
      "inputs": [
        {
          "internalType": "address",
          "name": "from",
          "type": "address"
        },
        {
          "internalType": "address",
          "name": "to",
          "type": "address"
        },
        {
          "internalType": "uint256",
          "name": "tokenId",
          "type": "uint256"
        },
        {
          "internalType": "bytes",
          "name": "data",
          "type": "bytes"
        }
      ],
      "name": "safeTransferFrom",
      "outputs": [],
      "stateMutability": "nonpayable",
      "type": "function"
    },
    {
      "inputs": [
        {
          "internalType": "address",
          "name": "operator",
          "type": "address"
        },
        {
          "internalType": "bool",
          "name": "approved",
          "type": "bool"
        }
      ],
      "name": "setApprovalForAll",
      "outputs": [],
      "stateMutability": "nonpayable",
      "type": "function"
    },
    {
      "inputs": [
        {
          "internalType": "bytes4",
          "name": "interfaceId",
          "type": "bytes4"
        }
      ],
      "name": "supportsInterface",
      "outputs": [
        {
          "internalType": "bool",
          "name": "",
          "type": "bool"
        }
      ],
      "stateMutability": "view",
      "type": "function"
    },
    {
      "inputs": [],
      "name": "symbol",
      "outputs": [
        {
          "internalType": "string",
          "name": "",
          "type": "string"
        }
      ],
      "stateMutability": "view",
      "type": "function"
    },
    {
      "inputs": [
        {
          "internalType": "uint256",
          "name": "tokenId",
          "type": "uint256"
        }
      ],
      "name": "tokenURI",
      "outputs": [
        {
          "internalType": "string",
          "name": "",
          "type": "string"
        }
      ],
      "stateMutability": "view",
      "type": "function"
    },
    {
      "inputs": [
        {
          "internalType": "address",
          "name": "from",
          "type": "address"
        },
        {
          "internalType": "address",
          "name": "to",
          "type": "address"
        },
        {
          "internalType": "uint256",
          "name": "tokenId",
          "type": "uint256"
        }
      ],
      "name": "transferFrom",
      "outputs": [],
      "stateMutability": "nonpayable",
      "type": "function"
    },
    {
      "inputs": [
        {
          "internalType": "address",
          "name": "newOwner",
          "type": "address"
        }
      ],
      "name": "transferOwnership",
      "outputs": [],
      "stateMutability": "nonpayable",
      "type": "function"
    }
  ],
  "bytecode": "0x608060405234801561001057600080fd5b506040518060400160405280600581526020017f4d794e46540000000000000000000000000000000000000000000000000000008152506040518060400160405280600481526020017f4d4e465400000000000000000000000000000000000000000000000000000000815250816000908161008c91906103de565b50806001908161009c91906103de565b5050506100bb6100b06100c060201b60201c565b6100c860201b60201c565b6104b0565b600033905090565b6000600760009054906101000a900473ffffffffffffffffffffffffffffffffffffffff16905081600760006101000a81548173ffffffffffffffffffffffffffffffffffffffff021916908373ffffffffffffffffffffffffffffffffffffffff1602179055508173ffffffffffffffffffffffffffffffffffffffff168173ffffffffffffffffffffffffffffffffffffffff167f8be0079c531659141344cd1fd0a4f28419497f9722a3daafe3b4186f6b6457e060405160405180910390a35050565b600081519050919050565b7f4e487b7100000000000000000000000000000000000000000000000000000000600052604160045260246000fd5b7f4e487b7100000000000000000000000000000000000000000000000000000000600052602260045260246000fd5b6000600282049050600182168061020f57607f821691505b602082108103610222576102216101c8565b5b50919050565b60008190508160005260206000209050919050565b60006020601f8301049050919050565b600082821b905092915050565b60006008830261028a7fffffffffffffffffffffffffffffffffffffffffffffffffffffffffffffffff8261024d565b610294868361024d565b95508019841693508086168417925050509392505050565b6000819050919050565b6000819050919050565b60006102db6102d66102d1846102ac565b6102b6565b6102ac565b9050919050565b6000819050919050565b6102f5836102c0565b610309610301826102e2565b84845461025a565b825550505050565b600090565b61031e610311565b6103298184846102ec565b505050565b5b8181101561034d57610342600082610316565b60018101905061032f565b5050565b601f8211156103925761036381610228565b61036c8461023d565b8101602085101561037b578190505b61038f6103878561023d565b83018261032e565b50505b505050565b600082821c905092915050565b60006103b560001984600802610397565b1980831691505092915050565b60006103ce83836103a4565b9150826002028217905092915050565b6103e78261018e565b67ffffffffffffffff811115610400576103ff610199565b5b61040a82546101f7565b610415828285610351565b600060209050601f8311600181146104485760008415610436578287015190505b61044085826103c2565b8655506104a8565b601f19841661045686610228565b60005b8281101561047e57848901518255600182019150602085019450602081019050610459565b8683101561049b5784890151610497601f8916826103a4565b8355505b6001600288020188555050505b505050505050565b612eaa806104bf6000396000f3fe608060405234801561001057600080fd5b506004361061010b5760003560e01c8063715018a6116100a2578063b88d4fde11610071578063b88d4fde146102a4578063c87b56dd146102c0578063e985e9c5146102f0578063eacabe1414610320578063f2fde38b146103505761010b565b8063715018a6146102425780638da5cb5b1461024c57806395d89b411461026a578063a22cb465146102885761010b565b806323b872dd116100de57806323b872dd146101aa57806342842e0e146101c65780636352211e146101e257806370a08231146102125761010b565b806301ffc9a71461011057806306fdde0314610140578063081812fc1461015e578063095ea7b31461018e575b600080fd5b61012a60048036038101906101259190611c24565b61036c565b6040516101379190611c6c565b60405180910390f35b6101486103cd565b6040516101559190611d17565b60405180910390f35b61017860048036038101906101739190611d6f565b61045f565b6040516101859190611ddd565b60405180910390f35b6101a860048036038101906101a39190611e24565b6104a5565b005b6101c460048036038101906101bf9190611e64565b6105bc565b005b6101e060048036038101906101db9190611e64565b61061c565b005b6101fc60048036038101906101f79190611d6f565b61063c565b6040516102099190611ddd565b60405180910390f35b61022c60048036038101906102279190611eb7565b6106c2565b6040516102399190611ef3565b60405180910390f35b61024a610779565b005b61025461078d565b6040516102619190611ddd565b60405180910390f35b6102726107b7565b60405161027f9190611d17565b60405180910390f35b6102a2600480360381019061029d9190611f3a565b610849565b005b6102be60048036038101906102b991906120af565b61085f565b005b6102da60048036038101906102d59190611d6f565b6108c1565b6040516102e79190611d17565b60405180910390f35b61030a60048036038101906103059190612132565b6109d3565b6040516103179190611c6c565b60405180910390f35b61033a60048036038101906103359190612213565b610a67565b6040516103479190611ef3565b60405180910390f35b61036a60048036038101906103659190611eb7565b610aae565b005b6000634906490660e01b7bffffffffffffffffffffffffffffffffffffffffffffffffffffffff1916827bffffffffffffffffffffffffffffffffffffffffffffffffffffffff191614806103c657506103c582610b31565b5b9050919050565b6060600080546103dc9061229e565b80601f01602080910402602001604051908101604052809291908181526020018280546104089061229e565b80156104555780601f1061042a57610100808354040283529160200191610455565b820191906000526020600020905b81548152906001019060200180831161043857829003601f168201915b5050505050905090565b600061046a82610c13565b6004600083815260200190815260200160002060009054906101000a900473ffffffffffffffffffffffffffffffffffffffff169050919050565b60006104b08261063c565b90508073ffffffffffffffffffffffffffffffffffffffff168373ffffffffffffffffffffffffffffffffffffffff1603610520576040517f08c379a000000000000000000000000000000000000000000000000000000000815260040161051790612341565b60405180910390fd5b8073ffffffffffffffffffffffffffffffffffffffff1661053f610c5e565b73ffffffffffffffffffffffffffffffffffffffff16148061056e575061056d81610568610c5e565b6109d3565b5b6105ad576040517f08c379a00000000000000000000000000000000000000000000000000000000081526004016105a4906123d3565b60405180910390fd5b6105b78383610c66565b505050565b6105cd6105c7610c5e565b82610d1f565b61060c576040517f08c379a000000000000000000000000000000000000000000000000000000000815260040161060390612465565b60405180910390fd5b610617838383610db4565b505050565b6106378383836040518060200160405280600081525061085f565b505050565b600080610648836110ad565b9050600073ffffffffffffffffffffffffffffffffffffffff168173ffffffffffffffffffffffffffffffffffffffff16036106b9576040517f08c379a00000000000000000000000000000000000000000000000000000000081526004016106b0906124d1565b60405180910390fd5b80915050919050565b60008073ffffffffffffffffffffffffffffffffffffffff168273ffffffffffffffffffffffffffffffffffffffff1603610732576040517f08c379a000000000000000000000000000000000000000000000000000000000815260040161072990612563565b60405180910390fd5b600360008373ffffffffffffffffffffffffffffffffffffffff1673ffffffffffffffffffffffffffffffffffffffff168152602001908152602001600020549050919050565b6107816110ea565b61078b6000611168565b565b6000600760009054906101000a900473ffffffffffffffffffffffffffffffffffffffff16905090565b6060600180546107c69061229e565b80601f01602080910402602001604051908101604052809291908181526020018280546107f29061229e565b801561083f5780601f106108145761010080835404028352916020019161083f565b820191906000526020600020905b81548152906001019060200180831161082257829003601f168201915b5050505050905090565b61085b610854610c5e565b838361122e565b5050565b61087061086a610c5e565b83610d1f565b6108af576040517f08c379a00000000000000000000000000000000000000000000000000000000081526004016108a690612465565b60405180910390fd5b6108bb8484848461139a565b50505050565b60606108cc82610c13565b60006006600084815260200190815260200160002080546108ec9061229e565b80601f01602080910402602001604051908101604052809291908181526020018280546109189061229e565b80156109655780601f1061093a57610100808354040283529160200191610965565b820191906000526020600020905b81548152906001019060200180831161094857829003601f168201915b5050505050905060006109766113f6565b9050600081510361098b5781925050506109ce565b6000825111156109c05780826040516020016109a89291906125bf565b604051602081830303815290604052925050506109ce565b6109c98461140d565b925050505b919050565b6000600560008473ffffffffffffffffffffffffffffffffffffffff1673ffffffffffffffffffffffffffffffffffffffff16815260200190815260200160002060008373ffffffffffffffffffffffffffffffffffffffff1673ffffffffffffffffffffffffffffffffffffffff16815260200190815260200160002060009054906101000a900460ff16905092915050565b6000610a716110ea565b60086000815480929190610a8490612612565b919050555060006008549050610a9a8482611475565b610aa48184611692565b8091505092915050565b610ab66110ea565b600073ffffffffffffffffffffffffffffffffffffffff168173ffffffffffffffffffffffffffffffffffffffff1603610b25576040517f08c379a0000000000000000000000000000000000000000000000000000000008152600401610b1c906126cc565b60405180910390fd5b610b2e81611168565b50565b60007f80ac58cd000000000000000000000000000000000000000000000000000000007bffffffffffffffffffffffffffffffffffffffffffffffffffffffff1916827bffffffffffffffffffffffffffffffffffffffffffffffffffffffff19161480610bfc57507f5b5e139f000000000000000000000000000000000000000000000000000000007bffffffffffffffffffffffffffffffffffffffffffffffffffffffff1916827bffffffffffffffffffffffffffffffffffffffffffffffffffffffff1916145b80610c0c5750610c0b82611736565b5b9050919050565b610c1c816117a0565b610c5b576040517f08c379a0000000000000000000000000000000000000000000000000000000008152600401610c52906124d1565b60405180910390fd5b50565b600033905090565b816004600083815260200190815260200160002060006101000a81548173ffffffffffffffffffffffffffffffffffffffff021916908373ffffffffffffffffffffffffffffffffffffffff160217905550808273ffffffffffffffffffffffffffffffffffffffff16610cd98361063c565b73ffffffffffffffffffffffffffffffffffffffff167f8c5be1e5ebec7d5bd14f71427d1e84f3dd0314c0f7b2291e5b200ac8c7c3b92560405160405180910390a45050565b600080610d2b8361063c565b90508073ffffffffffffffffffffffffffffffffffffffff168473ffffffffffffffffffffffffffffffffffffffff161480610d6d5750610d6c81856109d3565b5b80610dab57508373ffffffffffffffffffffffffffffffffffffffff16610d938461045f565b73ffffffffffffffffffffffffffffffffffffffff16145b91505092915050565b8273ffffffffffffffffffffffffffffffffffffffff16610dd48261063c565b73ffffffffffffffffffffffffffffffffffffffff1614610e2a576040517f08c379a0000000000000000000000000000000000000000000000000000000008152600401610e219061275e565b60405180910390fd5b600073ffffffffffffffffffffffffffffffffffffffff168273ffffffffffffffffffffffffffffffffffffffff1603610e99576040517f08c379a0000000000000000000000000000000000000000000000000000000008152600401610e90906127f0565b60405180910390fd5b610ea683838360016117e1565b8273ffffffffffffffffffffffffffffffffffffffff16610ec68261063c565b73ffffffffffffffffffffffffffffffffffffffff1614610f1c576040517f08c379a0000000000000000000000000000000000000000000000000000000008152600401610f139061275e565b60405180910390fd5b6004600082815260200190815260200160002060006101000a81549073ffffffffffffffffffffffffffffffffffffffff02191690556001600360008573ffffffffffffffffffffffffffffffffffffffff1673ffffffffffffffffffffffffffffffffffffffff168152602001908152602001600020600082825403925050819055506001600360008473ffffffffffffffffffffffffffffffffffffffff1673ffffffffffffffffffffffffffffffffffffffff16815260200190815260200160002060008282540192505081905550816002600083815260200190815260200160002060006101000a81548173ffffffffffffffffffffffffffffffffffffffff021916908373ffffffffffffffffffffffffffffffffffffffff160217905550808273ffffffffffffffffffffffffffffffffffffffff168473ffffffffffffffffffffffffffffffffffffffff167fddf252ad1be2c89b69c2b068fc378daa952ba7f163c4a11628f55a4df523b3ef60405160405180910390a46110a883838360016117e7565b505050565b60006002600083815260200190815260200160002060009054906101000a900473ffffffffffffffffffffffffffffffffffffffff169050919050565b6110f2610c5e565b73ffffffffffffffffffffffffffffffffffffffff1661111061078d565b73ffffffffffffffffffffffffffffffffffffffff1614611166576040517f08c379a000000000000000000000000000000000000000000000000000000000815260040161115d9061285c565b60405180910390fd5b565b6000600760009054906101000a900473ffffffffffffffffffffffffffffffffffffffff16905081600760006101000a81548173ffffffffffffffffffffffffffffffffffffffff021916908373ffffffffffffffffffffffffffffffffffffffff1602179055508173ffffffffffffffffffffffffffffffffffffffff168173ffffffffffffffffffffffffffffffffffffffff167f8be0079c531659141344cd1fd0a4f28419497f9722a3daafe3b4186f6b6457e060405160405180910390a35050565b8173ffffffffffffffffffffffffffffffffffffffff168373ffffffffffffffffffffffffffffffffffffffff160361129c576040517f08c379a0000000000000000000000000000000000000000000000000000000008152600401611293906128c8565b60405180910390fd5b80600560008573ffffffffffffffffffffffffffffffffffffffff1673ffffffffffffffffffffffffffffffffffffffff16815260200190815260200160002060008473ffffffffffffffffffffffffffffffffffffffff1673ffffffffffffffffffffffffffffffffffffffff16815260200190815260200160002060006101000a81548160ff0219169083151502179055508173ffffffffffffffffffffffffffffffffffffffff168373ffffffffffffffffffffffffffffffffffffffff167f17307eab39ab6107e8899845ad3d59bd9653f200f220920489ca2b5937696c318360405161138d9190611c6c565b60405180910390a3505050565b6113a5848484610db4565b6113b1848484846117ed565b6113f0576040517f08c379a00000000000000000000000000000000000000000000000000000000081526004016113e79061295a565b60405180910390fd5b50505050565b606060405180602001604052806000815250905090565b606061141882610c13565b60006114226113f6565b90506000815111611442576040518060200160405280600081525061146d565b8061144c84611974565b60405160200161145d9291906125bf565b6040516020818303038152906040525b915050919050565b600073ffffffffffffffffffffffffffffffffffffffff168273ffffffffffffffffffffffffffffffffffffffff16036114e4576040517f08c379a00000000000000000000000000000000000000000000000000000000081526004016114db906129c6565b60405180910390fd5b6114ed816117a0565b1561152d576040517f08c379a000000000000000000000000000000000000000000000000000000000815260040161152490612a32565b60405180910390fd5b61153b6000838360016117e1565b611544816117a0565b15611584576040517f08c379a000000000000000000000000000000000000000000000000000000000815260040161157b90612a32565b60405180910390fd5b6001600360008473ffffffffffffffffffffffffffffffffffffffff1673ffffffffffffffffffffffffffffffffffffffff16815260200190815260200160002060008282540192505081905550816002600083815260200190815260200160002060006101000a81548173ffffffffffffffffffffffffffffffffffffffff021916908373ffffffffffffffffffffffffffffffffffffffff160217905550808273ffffffffffffffffffffffffffffffffffffffff16600073ffffffffffffffffffffffffffffffffffffffff167fddf252ad1be2c89b69c2b068fc378daa952ba7f163c4a11628f55a4df523b3ef60405160405180910390a461168e6000838360016117e7565b5050565b61169b826117a0565b6116da576040517f08c379a00000000000000000000000000000000000000000000000000000000081526004016116d190612ac4565b60405180910390fd5b806006600084815260200190815260200160002090816116fa9190612c90565b507ff8e1a15aba9398e019f0b49df1a4fde98ee17ae345cb5f6b5e2c27f5033e8ce78260405161172a9190611ef3565b60405180910390a15050565b60007f01ffc9a7000000000000000000000000000000000000000000000000000000007bffffffffffffffffffffffffffffffffffffffffffffffffffffffff1916827bffffffffffffffffffffffffffffffffffffffffffffffffffffffff1916149050919050565b60008073ffffffffffffffffffffffffffffffffffffffff166117c2836110ad565b73ffffffffffffffffffffffffffffffffffffffff1614159050919050565b50505050565b50505050565b600061180e8473ffffffffffffffffffffffffffffffffffffffff16611a42565b15611967578373ffffffffffffffffffffffffffffffffffffffff1663150b7a02611837610c5e565b8786866040518563ffffffff1660e01b81526004016118599493929190612db7565b6020604051808303816000875af192505050801561189557506040513d601f19601f820116820180604052508101906118929190612e18565b60015b611917573d80600081146118c5576040519150601f19603f3d011682016040523d82523d6000602084013e6118ca565b606091505b50600081510361190f576040517f08c379a00000000000000000000000000000000000000000000000000000000081526004016119069061295a565b60405180910390fd5b805181602001fd5b63150b7a0260e01b7bffffffffffffffffffffffffffffffffffffffffffffffffffffffff1916817bffffffffffffffffffffffffffffffffffffffffffffffffffffffff19161491505061196c565b600190505b949350505050565b60606000600161198384611a65565b01905060008167ffffffffffffffff8111156119a2576119a1611f84565b5b6040519080825280601f01601f1916602001820160405280156119d45781602001600182028036833780820191505090505b509050600082602001820190505b600115611a37578080600190039150507f3031323334353637383961626364656600000000000000000000000000000000600a86061a8153600a8581611a2b57611a2a612e45565b5b049450600085036119e2575b819350505050919050565b6000808273ffffffffffffffffffffffffffffffffffffffff163b119050919050565b600080600090507a184f03e93ff9f4daa797ed6e38ed64bf6a1f0100000000000000008310611ac3577a184f03e93ff9f4daa797ed6e38ed64bf6a1f0100000000000000008381611ab957611ab8612e45565b5b0492506040810190505b6d04ee2d6d415b85acef81000000008310611b00576d04ee2d6d415b85acef81000000008381611af657611af5612e45565b5b0492506020810190505b662386f26fc100008310611b2f57662386f26fc100008381611b2557611b24612e45565b5b0492506010810190505b6305f5e1008310611b58576305f5e1008381611b4e57611b4d612e45565b5b0492506008810190505b6127108310611b7d576127108381611b7357611b72612e45565b5b0492506004810190505b60648310611ba05760648381611b9657611b95612e45565b5b0492506002810190505b600a8310611baf576001810190505b80915050919050565b6000604051905090565b600080fd5b600080fd5b60007fffffffff0000000000000000000000000000000000000000000000000000000082169050919050565b611c0181611bcc565b8114611c0c57600080fd5b50565b600081359050611c1e81611bf8565b92915050565b600060208284031215611c3a57611c39611bc2565b5b6000611c4884828501611c0f565b91505092915050565b60008115159050919050565b611c6681611c51565b82525050565b6000602082019050611c816000830184611c5d565b92915050565b600081519050919050565b600082825260208201905092915050565b60005b83811015611cc1578082015181840152602081019050611ca6565b60008484015250505050565b6000601f19601f8301169050919050565b6000611ce982611c87565b611cf38185611c92565b9350611d03818560208601611ca3565b611d0c81611ccd565b840191505092915050565b60006020820190508181036000830152611d318184611cde565b905092915050565b6000819050919050565b611d4c81611d39565b8114611d5757600080fd5b50565b600081359050611d6981611d43565b92915050565b600060208284031215611d8557611d84611bc2565b5b6000611d9384828501611d5a565b91505092915050565b600073ffffffffffffffffffffffffffffffffffffffff82169050919050565b6000611dc782611d9c565b9050919050565b611dd781611dbc565b82525050565b6000602082019050611df26000830184611dce565b92915050565b611e0181611dbc565b8114611e0c57600080fd5b50565b600081359050611e1e81611df8565b92915050565b60008060408385031215611e3b57611e3a611bc2565b5b6000611e4985828601611e0f565b9250506020611e5a85828601611d5a565b9150509250929050565b600080600060608486031215611e7d57611e7c611bc2565b5b6000611e8b86828701611e0f565b9350506020611e9c86828701611e0f565b9250506040611ead86828701611d5a565b9150509250925092565b600060208284031215611ecd57611ecc611bc2565b5b6000611edb84828501611e0f565b91505092915050565b611eed81611d39565b82525050565b6000602082019050611f086000830184611ee4565b92915050565b611f1781611c51565b8114611f2257600080fd5b50565b600081359050611f3481611f0e565b92915050565b60008060408385031215611f5157611f50611bc2565b5b6000611f5f85828601611e0f565b9250506020611f7085828601611f25565b9150509250929050565b600080fd5b600080fd5b7f4e487b7100000000000000000000000000000000000000000000000000000000600052604160045260246000fd5b611fbc82611ccd565b810181811067ffffffffffffffff82111715611fdb57611fda611f84565b5b80604052505050565b6000611fee611bb8565b9050611ffa8282611fb3565b919050565b600067ffffffffffffffff82111561201a57612019611f84565b5b61202382611ccd565b9050602081019050919050565b82818337600083830152505050565b600061205261204d84611fff565b611fe4565b90508281526020810184848401111561206e5761206d611f7f565b5b612079848285612030565b509392505050565b600082601f83011261209657612095611f7a565b5b81356120a684826020860161203f565b91505092915050565b600080600080608085870312156120c9576120c8611bc2565b5b60006120d787828801611e0f565b94505060206120e887828801611e0f565b93505060406120f987828801611d5a565b925050606085013567ffffffffffffffff81111561211a57612119611bc7565b5b61212687828801612081565b91505092959194509250565b6000806040838503121561214957612148611bc2565b5b600061215785828601611e0f565b925050602061216885828601611e0f565b9150509250929050565b600067ffffffffffffffff82111561218d5761218c611f84565b5b61219682611ccd565b9050602081019050919050565b60006121b66121b184612172565b611fe4565b9050828152602081018484840111156121d2576121d1611f7f565b5b6121dd848285612030565b509392505050565b600082601f8301126121fa576121f9611f7a565b5b813561220a8482602086016121a3565b91505092915050565b6000806040838503121561222a57612229611bc2565b5b600061223885828601611e0f565b925050602083013567ffffffffffffffff81111561225957612258611bc7565b5b612265858286016121e5565b9150509250929050565b7f4e487b7100000000000000000000000000000000000000000000000000000000600052602260045260246000fd5b600060028204905060018216806122b657607f821691505b6020821081036122c9576122c861226f565b5b50919050565b7f4552433732313a20617070726f76616c20746f2063757272656e74206f776e6560008201527f7200000000000000000000000000000000000000000000000000000000000000602082015250565b600061232b602183611c92565b9150612336826122cf565b604082019050919050565b6000602082019050818103600083015261235a8161231e565b9050919050565b7f4552433732313a20617070726f76652063616c6c6572206973206e6f7420746f60008201527f6b656e206f776e6572206f7220617070726f76656420666f7220616c6c000000602082015250565b60006123bd603d83611c92565b91506123c882612361565b604082019050919050565b600060208201905081810360008301526123ec816123b0565b9050919050565b7f4552433732313a2063616c6c6572206973206e6f7420746f6b656e206f776e6560008201527f72206f7220617070726f76656400000000000000000000000000000000000000602082015250565b600061244f602d83611c92565b915061245a826123f3565b604082019050919050565b6000602082019050818103600083015261247e81612442565b9050919050565b7f4552433732313a20696e76616c696420746f6b656e2049440000000000000000600082015250565b60006124bb601883611c92565b91506124c682612485565b602082019050919050565b600060208201905081810360008301526124ea816124ae565b9050919050565b7f4552433732313a2061646472657373207a65726f206973206e6f74206120766160008201527f6c6964206f776e65720000000000000000000000000000000000000000000000602082015250565b600061254d602983611c92565b9150612558826124f1565b604082019050919050565b6000602082019050818103600083015261257c81612540565b9050919050565b600081905092915050565b600061259982611c87565b6125a38185612583565b93506125b3818560208601611ca3565b80840191505092915050565b60006125cb828561258e565b91506125d7828461258e565b91508190509392505050565b7f4e487b7100000000000000000000000000000000000000000000000000000000600052601160045260246000fd5b600061261d82611d39565b91507fffffffffffffffffffffffffffffffffffffffffffffffffffffffffffffffff820361264f5761264e6125e3565b5b600182019050919050565b7f4f776e61626c653a206e6577206f776e657220697320746865207a65726f206160008201527f6464726573730000000000000000000000000000000000000000000000000000602082015250565b60006126b6602683611c92565b91506126c18261265a565b604082019050919050565b600060208201905081810360008301526126e5816126a9565b9050919050565b7f4552433732313a207472616e736665722066726f6d20696e636f72726563742060008201527f6f776e6572000000000000000000000000000000000000000000000000000000602082015250565b6000612748602583611c92565b9150612753826126ec565b604082019050919050565b600060208201905081810360008301526127778161273b565b9050919050565b7f4552433732313a207472616e7366657220746f20746865207a65726f2061646460008201527f7265737300000000000000000000000000000000000000000000000000000000602082015250565b60006127da602483611c92565b91506127e58261277e565b604082019050919050565b60006020820190508181036000830152612809816127cd565b9050919050565b7f4f776e61626c653a2063616c6c6572206973206e6f7420746865206f776e6572600082015250565b6000612846602083611c92565b915061285182612810565b602082019050919050565b6000602082019050818103600083015261287581612839565b9050919050565b7f4552433732313a20617070726f766520746f2063616c6c657200000000000000600082015250565b60006128b2601983611c92565b91506128bd8261287c565b602082019050919050565b600060208201905081810360008301526128e1816128a5565b9050919050565b7f4552433732313a207472616e7366657220746f206e6f6e20455243373231526560008201527f63656976657220696d706c656d656e7465720000000000000000000000000000602082015250565b6000612944603283611c92565b915061294f826128e8565b604082019050919050565b6000602082019050818103600083015261297381612937565b9050919050565b7f4552433732313a206d696e7420746f20746865207a65726f2061646472657373600082015250565b60006129b0602083611c92565b91506129bb8261297a565b602082019050919050565b600060208201905081810360008301526129df816129a3565b9050919050565b7f4552433732313a20746f6b656e20616c7265616479206d696e74656400000000600082015250565b6000612a1c601c83611c92565b9150612a27826129e6565b602082019050919050565b60006020820190508181036000830152612a4b81612a0f565b9050919050565b7f45524337323155524953746f726167653a2055524920736574206f66206e6f6e60008201527f6578697374656e7420746f6b656e000000000000000000000000000000000000602082015250565b6000612aae602e83611c92565b9150612ab982612a52565b604082019050919050565b60006020820190508181036000830152612add81612aa1565b9050919050565b60008190508160005260206000209050919050565b60006020601f8301049050919050565b600082821b905092915050565b600060088302612b467fffffffffffffffffffffffffffffffffffffffffffffffffffffffffffffffff82612b09565b612b508683612b09565b95508019841693508086168417925050509392505050565b6000819050919050565b6000612b8d612b88612b8384611d39565b612b68565b611d39565b9050919050565b6000819050919050565b612ba783612b72565b612bbb612bb382612b94565b848454612b16565b825550505050565b600090565b612bd0612bc3565b612bdb818484612b9e565b505050565b5b81811015612bff57612bf4600082612bc8565b600181019050612be1565b5050565b601f821115612c4457612c1581612ae4565b612c1e84612af9565b81016020851015612c2d578190505b612c41612c3985612af9565b830182612be0565b50505b505050565b600082821c905092915050565b6000612c6760001984600802612c49565b1980831691505092915050565b6000612c808383612c56565b9150826002028217905092915050565b612c9982611c87565b67ffffffffffffffff811115612cb257612cb1611f84565b5b612cbc825461229e565b612cc7828285612c03565b600060209050601f831160018114612cfa5760008415612ce8578287015190505b612cf28582612c74565b865550612d5a565b601f198416612d0886612ae4565b60005b82811015612d3057848901518255600182019150602085019450602081019050612d0b565b86831015612d4d5784890151612d49601f891682612c56565b8355505b6001600288020188555050505b505050505050565b600081519050919050565b600082825260208201905092915050565b6000612d8982612d62565b612d938185612d6d565b9350612da3818560208601611ca3565b612dac81611ccd565b840191505092915050565b6000608082019050612dcc6000830187611dce565b612dd96020830186611dce565b612de66040830185611ee4565b8181036060830152612df88184612d7e565b905095945050505050565b600081519050612e1281611bf8565b92915050565b600060208284031215612e2e57612e2d611bc2565b5b6000612e3c84828501612e03565b91505092915050565b7f4e487b7100000000000000000000000000000000000000000000000000000000600052601260045260246000fdfea26469706673582212203bfddce95b0c5c5e13179bf4fd09d92df3a7b71d2fe4e60ae2373e952127eb5464736f6c634300081c0033",
  "linkReferences": {},
  "deployedLinkReferences": {}
}