{
  "_format": "hh-sol-artifact-1",
  "contractName": "NFTMarketplace",
  "sourceName": "contracts/NFTMarketplace.sol",
  "abi": [
    {
      "anonymous": false,
      "inputs": [
        {
          "indexed": false,
          "internalType": "uint256",
          "name": "id",
          "type": "uint256"
        },
        {
          "indexed": false,
          "internalType": "address",
          "name": "nft",
          "type": "address"
        },
        {
          "indexed": false,
          "internalType": "uint256",
          "name": "tokenId",
          "type": "uint256"
        },
        {
          "indexed": false,
          "internalType": "address",
          "name": "seller",
          "type": "address"
        },
        {
          "indexed": false,
          "internalType": "uint256",
          "name": "price",
          "type": "uint256"
        }
      ],
      "name": "ItemListed",
      "type": "event"
    },
    {
      "anonymous": false,
      "inputs": [
        {
          "indexed": false,
          "internalType": "uint256",
          "name": "id",
          "type": "uint256"
        },
        {
          "indexed": false,
          "internalType": "address",
          "name": "buyer",
          "type": "address"
        }
      ],
      "name": "ItemSold",
      "type": "event"
    },
    {
      "inputs": [
        {
          "internalType": "uint256",
          "name": "id",
          "type": "uint256"
        }
      ],
      "name": "buyItem",
      "outputs": [],
      "stateMutability": "payable",
      "type": "function"
    },
    {
      "inputs": [
        {
          "internalType": "uint256",
          "name": "id",
          "type": "uint256"
        }
      ],
      "name": "getListing",
      "outputs": [
        {
          "components": [
            {
              "internalType": "uint256",
              "name": "id",
              "type": "uint256"
            },
            {
              "internalType": "address",
              "name": "nft",
              "type": "address"
            },
            {
              "internalType": "uint256",
              "name": "tokenId",
              "type": "uint256"
            },
            {
              "internalType": "address payable",
              "name": "seller",
              "type": "address"
            },
            {
              "internalType": "uint256",
              "name": "price",
              "type": "uint256"
            },
            {
              "internalType": "bool",
              "name": "sold",
              "type": "bool"
            }
          ],
          "internalType": "struct NFTMarketplace.Listing",
          "name": "",
          "type": "tuple"
        }
      ],
      "stateMutability": "view",
      "type": "function"
    },
    {
      "inputs": [],
      "name": "getTotalListings",
      "outputs": [
        {
          "internalType": "uint256",
          "name": "",
          "type": "uint256"
        }
      ],
      "stateMutability": "view",
      "type": "function"
    },
    {
      "inputs": [
        {
          "internalType": "address",
          "name": "nft",
          "type": "address"
        },
        {
          "internalType": "uint256",
          "name": "tokenId",
          "type": "uint256"
        },
        {
          "internalType": "uint256",
          "name": "price",
          "type": "uint256"
        }
      ],
      "name": "listItem",
      "outputs": [],
      "stateMutability": "nonpayable",
      "type": "function"
    },
    {
      "inputs": [
        {
          "internalType": "uint256",
          "name": "",
          "type": "uint256"
        }
      ],
      "name": "listings",
      "outputs": [
        {
          "internalType": "uint256",
          "name": "id",
          "type": "uint256"
        },
        {
          "internalType": "address",
          "name": "nft",
          "type": "address"
        },
        {
          "internalType": "uint256",
          "name": "tokenId",
          "type": "uint256"
        },
        {
          "internalType": "address payable",
          "name": "seller",
          "type": "address"
        },
        {
          "internalType": "uint256",
          "name": "price",
          "type": "uint256"
        },
        {
          "internalType": "bool",
          "name": "sold",
          "type": "bool"
        }
      ],
      "stateMutability": "view",
      "type": "function"
    }
  ],
  "bytecode": "0x6080604052348015600f57600080fd5b506001600081905550610def806100276000396000f3fe60806040526004361061004a5760003560e01c8063107a274a1461004f57806389bfd38f1461008c578063de74e57b146100b5578063e7fb74c7146100f7578063fbf30c3514610113575b600080fd5b34801561005b57600080fd5b5061007660048036038101906100719190610848565b61013e565b604051610083919061097c565b60405180910390f35b34801561009857600080fd5b506100b360048036038101906100ae91906109c3565b610250565b005b3480156100c157600080fd5b506100dc60048036038101906100d79190610848565b6104a2565b6040516100ee96959493929190610a52565b60405180910390f35b610111600480360381019061010c9190610848565b61052b565b005b34801561011f57600080fd5b50610128610746565b6040516101359190610ab3565b60405180910390f35b6101466107a9565b600260008381526020019081526020016000206040518060c0016040529081600082015481526020016001820160009054906101000a900473ffffffffffffffffffffffffffffffffffffffff1673ffffffffffffffffffffffffffffffffffffffff1673ffffffffffffffffffffffffffffffffffffffff168152602001600282015481526020016003820160009054906101000a900473ffffffffffffffffffffffffffffffffffffffff1673ffffffffffffffffffffffffffffffffffffffff1673ffffffffffffffffffffffffffffffffffffffff168152602001600482015481526020016005820160009054906101000a900460ff1615151515815250509050919050565b60008111610293576040517f08c379a000000000000000000000000000000000000000000000000000000000815260040161028a90610b2b565b60405180910390fd5b8273ffffffffffffffffffffffffffffffffffffffff166323b872dd3330856040518463ffffffff1660e01b81526004016102d093929190610b4b565b600060405180830381600087803b1580156102ea57600080fd5b505af11580156102fe573d6000803e3d6000fd5b505050506001600081548092919061031590610bb1565b91905055506040518060c0016040528060015481526020018473ffffffffffffffffffffffffffffffffffffffff1681526020018381526020013373ffffffffffffffffffffffffffffffffffffffff168152602001828152602001600015158152506002600060015481526020019081526020016000206000820151816000015560208201518160010160006101000a81548173ffffffffffffffffffffffffffffffffffffffff021916908373ffffffffffffffffffffffffffffffffffffffff1602179055506040820151816002015560608201518160030160006101000a81548173ffffffffffffffffffffffffffffffffffffffff021916908373ffffffffffffffffffffffffffffffffffffffff1602179055506080820151816004015560a08201518160050160006101000a81548160ff0219169083151502179055509050507ffc03b4e2884c77019bbed322825d5474a29f5a432ee06b79726bb2b5b707fae560015484843385604051610495959493929190610bf9565b60405180910390a1505050565b60026020528060005260406000206000915090508060000154908060010160009054906101000a900473ffffffffffffffffffffffffffffffffffffffff16908060020154908060030160009054906101000a900473ffffffffffffffffffffffffffffffffffffffff16908060040154908060050160009054906101000a900460ff16905086565b610533610750565b60006002600083815260200190815260200160002090508060050160009054906101000a900460ff161561059c576040517f08c379a000000000000000000000000000000000000000000000000000000000815260040161059390610c98565b60405180910390fd5b806004015434146105e2576040517f08c379a00000000000000000000000000000000000000000000000000000000081526004016105d990610d04565b60405180910390fd5b60018160050160006101000a81548160ff0219169083151502179055508060010160009054906101000a900473ffffffffffffffffffffffffffffffffffffffff1673ffffffffffffffffffffffffffffffffffffffff166323b872dd303384600201546040518463ffffffff1660e01b815260040161066493929190610b4b565b600060405180830381600087803b15801561067e57600080fd5b505af1158015610692573d6000803e3d6000fd5b505050508060030160009054906101000a900473ffffffffffffffffffffffffffffffffffffffff1673ffffffffffffffffffffffffffffffffffffffff166108fc349081150290604051600060405180830381858888f19350505050158015610700573d6000803e3d6000fd5b507f7de4035ced290be6d7724645d43bad448b5d8cc76743ff4da172c2d8e1caa0f58233604051610732929190610d24565b60405180910390a15061074361079f565b50565b6000600154905090565b600260005403610795576040517f08c379a000000000000000000000000000000000000000000000000000000000815260040161078c90610d99565b60405180910390fd5b6002600081905550565b6001600081905550565b6040518060c0016040528060008152602001600073ffffffffffffffffffffffffffffffffffffffff16815260200160008152602001600073ffffffffffffffffffffffffffffffffffffffff168152602001600081526020016000151581525090565b600080fd5b6000819050919050565b61082581610812565b811461083057600080fd5b50565b6000813590506108428161081c565b92915050565b60006020828403121561085e5761085d61080d565b5b600061086c84828501610833565b91505092915050565b61087e81610812565b82525050565b600073ffffffffffffffffffffffffffffffffffffffff82169050919050565b60006108af82610884565b9050919050565b6108bf816108a4565b82525050565b60006108d082610884565b9050919050565b6108e0816108c5565b82525050565b60008115159050919050565b6108fb816108e6565b82525050565b60c0820160008201516109176000850182610875565b50602082015161092a60208501826108b6565b50604082015161093d6040850182610875565b50606082015161095060608501826108d7565b5060808201516109636080850182610875565b5060a082015161097660a08501826108f2565b50505050565b600060c0820190506109916000830184610901565b92915050565b6109a0816108a4565b81146109ab57600080fd5b50565b6000813590506109bd81610997565b92915050565b6000806000606084860312156109dc576109db61080d565b5b60006109ea868287016109ae565b93505060206109fb86828701610833565b9250506040610a0c86828701610833565b9150509250925092565b610a1f81610812565b82525050565b610a2e816108a4565b82525050565b610a3d816108c5565b82525050565b610a4c816108e6565b82525050565b600060c082019050610a676000830189610a16565b610a746020830188610a25565b610a816040830187610a16565b610a8e6060830186610a34565b610a9b6080830185610a16565b610aa860a0830184610a43565b979650505050505050565b6000602082019050610ac86000830184610a16565b92915050565b600082825260208201905092915050565b7f43656e61206d75736920627963203e2030000000000000000000000000000000600082015250565b6000610b15601183610ace565b9150610b2082610adf565b602082019050919050565b60006020820190508181036000830152610b4481610b08565b9050919050565b6000606082019050610b606000830186610a25565b610b6d6020830185610a25565b610b7a6040830184610a16565b949350505050565b7f4e487b7100000000000000000000000000000000000000000000000000000000600052601160045260246000fd5b6000610bbc82610812565b91507fffffffffffffffffffffffffffffffffffffffffffffffffffffffffffffffff8203610bee57610bed610b82565b5b600182019050919050565b600060a082019050610c0e6000830188610a16565b610c1b6020830187610a25565b610c286040830186610a16565b610c356060830185610a25565b610c426080830184610a16565b9695505050505050565b7f4a757a207370727a6564616e6500000000000000000000000000000000000000600082015250565b6000610c82600d83610ace565b9150610c8d82610c4c565b602082019050919050565b60006020820190508181036000830152610cb181610c75565b9050919050565b7f5a6c612063656e61000000000000000000000000000000000000000000000000600082015250565b6000610cee600883610ace565b9150610cf982610cb8565b602082019050919050565b60006020820190508181036000830152610d1d81610ce1565b9050919050565b6000604082019050610d396000830185610a16565b610d466020830184610a25565b9392505050565b7f5265656e7472616e637947756172643a207265656e7472616e742063616c6c00600082015250565b6000610d83601f83610ace565b9150610d8e82610d4d565b602082019050919050565b60006020820190508181036000830152610db281610d76565b905091905056fea2646970667358221220f7c9616d573fe47c2c3883a887e8a89e0b02c04963ff34fda24a96d793b29f3464736f6c634300081c0033",
  "linkReferences": {},
  "deployedLinkReferences": {}
}